{
  "_format": "hh-sol-artifact-1",
  "contractName": "AutoDCAExecutor",
  "sourceName": "contracts/AutoDCA/AutoDCAExecutor.sol",
  "abi": [
    {
      "inputs": [
        {
          "internalType": "address",
          "name": "smartAccount",
          "type": "address"
        }
      ],
      "name": "AlreadyInitialized",
      "type": "error"
    },
    {
      "inputs": [],
      "name": "ExecutionFailed",
      "type": "error"
    },
    {
      "inputs": [
        {
          "internalType": "address",
          "name": "smartAccount",
          "type": "address"
        }
      ],
      "name": "NotInitialized",
      "type": "error"
    },
    {
      "anonymous": false,
      "inputs": [
        {
          "indexed": true,
          "internalType": "address",
          "name": "account",
          "type": "address"
        },
        {
          "indexed": true,
          "internalType": "uint256",
          "name": "id",
          "type": "uint256"
        }
      ],
      "name": "JobAdded",
      "type": "event"
    },
    {
      "inputs": [
        {
          "components": [
            {
              "internalType": "address",
              "name": "token",
              "type": "address"
            },
            {
              "internalType": "address",
              "name": "targetToken",
              "type": "address"
            },
            {
              "internalType": "address",
              "name": "vault",
              "type": "address"
            },
            {
              "internalType": "uint48",
              "name": "validAfter",
              "type": "uint48"
            },
            {
              "internalType": "uint48",
              "name": "validUntil",
              "type": "uint48"
            },
            {
              "internalType": "uint256",
              "name": "limitAmount",
              "type": "uint256"
            },
            {
              "internalType": "uint256",
              "name": "limitUsed",
              "type": "uint256"
            },
            {
              "internalType": "uint48",
              "name": "lastUsed",
              "type": "uint48"
            },
            {
              "internalType": "uint48",
              "name": "refreshInterval",
              "type": "uint48"
            }
          ],
          "internalType": "struct AutoDCAExecutor.JobData",
          "name": "jobData",
          "type": "tuple"
        }
      ],
      "name": "createJob",
      "outputs": [
        {
          "internalType": "uint256",
          "name": "",
          "type": "uint256"
        }
      ],
      "stateMutability": "nonpayable",
      "type": "function"
    },
    {
      "inputs": [
        {
          "internalType": "uint256",
          "name": "jobId",
          "type": "uint256"
        }
      ],
      "name": "executeJob",
      "outputs": [
        {
          "internalType": "bytes",
          "name": "",
          "type": "bytes"
        }
      ],
      "stateMutability": "nonpayable",
      "type": "function"
    },
    {
      "inputs": [
        {
          "internalType": "address",
          "name": "account",
          "type": "address"
        }
      ],
      "name": "getJobData",
      "outputs": [
        {
          "components": [
            {
              "internalType": "address",
              "name": "token",
              "type": "address"
            },
            {
              "internalType": "address",
              "name": "targetToken",
              "type": "address"
            },
            {
              "internalType": "address",
              "name": "vault",
              "type": "address"
            },
            {
              "internalType": "uint48",
              "name": "validAfter",
              "type": "uint48"
            },
            {
              "internalType": "uint48",
              "name": "validUntil",
              "type": "uint48"
            },
            {
              "internalType": "uint256",
              "name": "limitAmount",
              "type": "uint256"
            },
            {
              "internalType": "uint256",
              "name": "limitUsed",
              "type": "uint256"
            },
            {
              "internalType": "uint48",
              "name": "lastUsed",
              "type": "uint48"
            },
            {
              "internalType": "uint48",
              "name": "refreshInterval",
              "type": "uint48"
            }
          ],
          "internalType": "struct AutoDCAExecutor.JobData[]",
          "name": "",
          "type": "tuple[]"
        }
      ],
      "stateMutability": "view",
      "type": "function"
    },
    {
      "inputs": [
        {
          "internalType": "address",
          "name": "smartAccount",
          "type": "address"
        }
      ],
      "name": "isInitialized",
      "outputs": [
        {
          "internalType": "bool",
          "name": "",
          "type": "bool"
        }
      ],
      "stateMutability": "view",
      "type": "function"
    },
    {
      "inputs": [
        {
          "internalType": "uint256",
          "name": "typeID",
          "type": "uint256"
        }
      ],
      "name": "isModuleType",
      "outputs": [
        {
          "internalType": "bool",
          "name": "",
          "type": "bool"
        }
      ],
      "stateMutability": "pure",
      "type": "function"
    },
    {
      "inputs": [
        {
          "internalType": "address",
          "name": "",
          "type": "address"
        },
        {
          "internalType": "uint256",
          "name": "",
          "type": "uint256"
        }
      ],
      "name": "jobDetails",
      "outputs": [
        {
          "internalType": "address",
          "name": "token",
          "type": "address"
        },
        {
          "internalType": "address",
          "name": "targetToken",
          "type": "address"
        },
        {
          "internalType": "address",
          "name": "vault",
          "type": "address"
        },
        {
          "internalType": "uint48",
          "name": "validAfter",
          "type": "uint48"
        },
        {
          "internalType": "uint48",
          "name": "validUntil",
          "type": "uint48"
        },
        {
          "internalType": "uint256",
          "name": "limitAmount",
          "type": "uint256"
        },
        {
          "internalType": "uint256",
          "name": "limitUsed",
          "type": "uint256"
        },
        {
          "internalType": "uint48",
          "name": "lastUsed",
          "type": "uint48"
        },
        {
          "internalType": "uint48",
          "name": "refreshInterval",
          "type": "uint48"
        }
      ],
      "stateMutability": "view",
      "type": "function"
    },
    {
      "inputs": [],
      "name": "name",
      "outputs": [
        {
          "internalType": "string",
          "name": "",
          "type": "string"
        }
      ],
      "stateMutability": "pure",
      "type": "function"
    },
    {
      "inputs": [
        {
          "internalType": "bytes",
          "name": "data",
          "type": "bytes"
        }
      ],
      "name": "onInstall",
      "outputs": [],
      "stateMutability": "nonpayable",
      "type": "function"
    },
    {
      "inputs": [
        {
          "internalType": "bytes",
          "name": "",
          "type": "bytes"
        }
      ],
      "name": "onUninstall",
      "outputs": [],
      "stateMutability": "nonpayable",
      "type": "function"
    },
    {
      "inputs": [],
      "name": "version",
      "outputs": [
        {
          "internalType": "string",
          "name": "",
          "type": "string"
        }
      ],
      "stateMutability": "pure",
      "type": "function"
    }
  ],
  "bytecode": "0x608080604052346015576112a7908161001b8239f35b600080fdfe608080604052600436101561001357600080fd5b60003560e01c90816306fdde03146107d057508063389323ce1461063857806354fd4d50146105d657806358838def146102815780636d61fe701461026a5780638a91b0e31461025a578063b06132e214610193578063d60b347f1461016e578063e100fa2f146100b25763ecd059611461008d57600080fd5b346100ad5760203660031901126100ad5760206040516002600435148152f35b600080fd5b346100ad5760403660031901126100ad576100cb610874565b602435906001600160a01b038091166000526000602052604060002080548310156100ad57610120926100fd9161098e565b50908082541691816001820154169060028101549265ffffffffffff936003830154916005600485015494015494604051978852602088015281166040870152848160a01c16606087015260d01c608086015260a085015260c084015281811660e084015260301c16610100820152f35b346100ad5760203660031901126100ad57610187610874565b50602060405160008152f35b346100ad576101203660031901126100ad576040516101b1816108e8565b6001600160a01b0360043581811681036100ad57825260243581811681036100ad57602083015260443590811681036100ad57604082015265ffffffffffff60643581811681036100ad57606083015260843581811681036100ad57608083015260a43560a083015260c43560c083015260e43581811681036100ad5760e08301526101043590811681036100ad5781610252916101006020940152610b14565b604051908152f35b346100ad576102683661089e565b005b346100ad5761026861027b3661089e565b90610a5e565b346100ad5760203660031901126100ad576004353360005260006020526102ac81604060002061098e565b50906102cc60038301918254906001600160a01b03855416913390610ceb565b156105ac576001600160a01b03825416906001600160a01b036001840154169054906102f746610ec4565b91610300610a26565b91610316826001600160a01b0386511687610e04565b61031f856109d8565b52610329846109e8565b5262ffffff60206001600160a01b038651169501511690610348610a05565b50604051958661010081011067ffffffffffffffff61010089011117610596576101008701604052865260208601526040850152336060850152608084019042825260a0850190815260c08501906000825260e0860192600084526001600160a01b036060604051987f414bf3890000000000000000000000000000000000000000000000000000000060208b01528281511660248b01528260208201511660448b015262ffffff60408201511660648b015201511660848801525160a48701525160c48601525160e4850152516001600160a01b036101049116818501528352610140830183811067ffffffffffffffff8211176105965761048593610480938260405261045683610905565b8252600061016082015261018081015261046f826109f5565b52610479816109f5565b5033610fb9565b6109f5565b51906020828051810103126100ad576020610549920151906104a5610a26565b916104c6816001600160a01b03600281600187015416950154168094610e04565b6104cf856109d8565b526104d9846109e8565b526104e2610a05565b50604051907f6e553f650000000000000000000000000000000000000000000000000000000060208301526024820152336044820152604481526105258161093d565b6040519161053283610905565b825260006020830152604082015261046f826109f5565b50604051602081526060518060208301528160005b82811061057f57508160006040809484010152601f80199101168101030190f35b60808101518482016040015283915060200161055e565b634e487b7160e01b600052604160045260246000fd5b60046040517facfdb444000000000000000000000000000000000000000000000000000000008152fd5b346100ad5760003660031901126100ad576106346040516105f681610921565b600581527f302e302e31000000000000000000000000000000000000000000000000000000602082015260405191829160208352602083019061084f565b0390f35b346100ad576020806003193601126100ad576001600160a01b03908161065c610874565b16600052600081526040600020805491610675836109c0565b926106836040519485610959565b8084528184018093600052826000206000915b838310610746575050505060405192818401908285525180915260408401929160005b8281106106c65785850386f35b83518051881686528083015188168684015260408082015189169087015260608082015165ffffffffffff9081169188019190915260808083015182169088015260a0808301519088015260c0808301519088015260e08083015182169088015261010091820151169086015261012090940193928101926001016106b9565b60068560019260409997995161075b816108e8565b8b86541681528b85870154168382015260028601548c8116604083015265ffffffffffff9060a0908281831c16606085015260d01c6080840152600388015490830152600487015460c0830152600587015481811660e084015260301c16610100820152815201920192019190959395610696565b346100ad5760003660031901126100ad57806107ee61063492610921565b600f81527f4175746f4443414578656375746f720000000000000000000000000000000000602082015260405191829160208352602083019061084f565b60005b83811061083f5750506000910152565b818101518382015260200161082f565b906020916108688151809281855285808601910161082c565b601f01601f1916010190565b600435906001600160a01b03821682036100ad57565b35906001600160a01b03821682036100ad57565b9060206003198301126100ad5760043567ffffffffffffffff928382116100ad57806023830112156100ad5781600401359384116100ad57602484830101116100ad576024019190565b610120810190811067ffffffffffffffff82111761059657604052565b6060810190811067ffffffffffffffff82111761059657604052565b6040810190811067ffffffffffffffff82111761059657604052565b6080810190811067ffffffffffffffff82111761059657604052565b90601f8019910116810190811067ffffffffffffffff82111761059657604052565b359065ffffffffffff821682036100ad57565b80548210156109aa576000526006602060002091020190600090565b634e487b7160e01b600052603260045260246000fd5b67ffffffffffffffff81116105965760051b60200190565b8051600110156109aa5760400190565b8051156109aa5760200190565b8051600210156109aa5760600190565b60405190610a1282610905565b606060408360008152600060208201520152565b60405190610a338261093d565b600382528160005b60608110610a47575050565b602090610a52610a05565b82828501015201610a3b565b908015610b10578161012091810103126100ad57604051610b0d91610a82826108e8565b610a8b8161088a565b8252610a996020820161088a565b6020830152610aaa6040820161088a565b6040830152610abb6060820161097b565b6060830152610acc6080820161097b565b608083015260a081013560a083015260c081013560c0830152610af160e0820161097b565b60e0830152610b0461010080920161097b565b90820152610b14565b50565b5050565b600090338252816020526040822080549068010000000000000000821015610cd75790610b469160018201815561098e565b610cc4576005906001600160a01b03808451167fffffffffffffffffffffffff000000000000000000000000000000000000000090818454161783556001830190826020870151169082541617905560408401511660608401519079ffffffffffff00000000000000000000000000000000000000007fffffffffffff0000000000000000000000000000000000000000000000000000608087015160d01b169260a01b161717600282015560a0830151600382015560c08301516004820155019065ffffffffffff60e0820151166bffffffffffff000000000000610100845493015160301b16916bffffffffffffffffffffffff1916171790553381528060205260408120549060001991828101908111610cb057337f5267cc3dc52ec998f4486441e56df63675fa73bfe96fbda51c4cfa7a1d6116098380a3338152806020526040812054918201918211610c9c575090565b80634e487b7160e01b602492526011600452fd5b602482634e487b7160e01b81526011600452fd5b602483634e487b7160e01b815280600452fd5b602484634e487b7160e01b81526041600452fd5b92610d0c6001600160a01b039384600094168452836020526040842061098e565b509280845416911603610d82576005820180549265ffffffffffff91828560301c1694600383015493600484019660028854950154828160a01c164210908115610df7575b50610deb578015908115610dbf575b5015610d92575050508401938410908115610d88575b50610d82575055600190565b91505090565b9050831138610d76565b94919680949196935011610db657505542169065ffffffffffff1916179055600190565b94505050505090565b905081831601818111610dd757814291161138610d60565b602487634e487b7160e01b81526011600452fd5b50505050505091505090565b905060d01c421138610d51565b929190610e0f610a05565b50610e18610a05565b506001600160a01b03809416916040908151957f095ea7b3000000000000000000000000000000000000000000000000000000009384602089015216958660248201526000604482015260448152610e6f8161093d565b825190610e7b82610905565b85825260006020830152838201529582519360208501526024840152604483015260448252610ea98261093d565b805192610eb584610905565b83526000602084015282015290565b60006020604051610ed481610921565b828152015260018103610f105750604051610eee81610921565b73e592427a0aece92de3edee1f18e0157c058615648152610bb8602082015290565b60898103610f255750604051610eee81610921565b61a4b103610f5b57604051610f3981610921565b73e592427a0aece92de3edee1f18e0157c0586156481526101f4602082015290565b60646040517f08c379a000000000000000000000000000000000000000000000000000000000815260206004820152601360248201527f556e737570706f72746564206e6574776f726b000000000000000000000000006044820152fd5b906040918251602091828201947f0100000000000000000000000000000000000000000000000000000000000000865260009283602182015283602282015283602682015283602a82015284815261101081610921565b5195519584811061125d575b506001600160a01b0394838251968784810193888083015280518095526060808301908a60608860051b86010193019186915b8c8a8a851061120e575050505050508394500394611075601f19968781018b528a610959565b8451809481937fd691c96400000000000000000000000000000000000000000000000000000000835260049c6004840152826110bd60249d8a6024840152604483019061084f565b0393165af19687156112045784976110da575b5050505050505090565b90919293949596503d8086843e6110f18184610959565b820192868385031261120057825167ffffffffffffffff938482116111fc570195601f9480601f890112156111f85787519661112c886109c0565b9a61113985519c8d610959565b888c528a808d019960051b8b010199838b116111f4578b8101995b8b8b106111745750505050505050505050505050388080808080806110d0565b8a518981116111f057820185603f820112156111f0578d810151908a82116111de57908b918f6111ac90888c51958501160184610959565b818352878a83830101116111da57918f93916111cf9085948c868501910161082c565b8152019a0199611154565b8880fd5b848860418c634e487b7160e01b835252fd5b8680fd5b8480fd5b5080fd5b8780fd5b8580fd5b82513d86823e3d90fd5b8599508282949781838c9e9c61124996979a60019a9d605f19908603018d52519081511684528781015188850152015193820152019061084f565b9701930193018b938a96939297959761104f565b60001990850360031b1b909516943861101c56fea264697066735822122011f489766d0cab62fc3e97b8fda31e494f808861fabd936fb652de983a3ed2cb64736f6c63430008190033",
  "linkReferences": {},
  "deployedLinkReferences": {}
}