{
  "_format": "hh-sol-artifact-1",
  "contractName": "AutoDCAExecutor",
  "sourceName": "contracts/AutoDCA/AutoDCAExecutor.sol",
  "abi": [
    {
      "inputs": [
        {
          "internalType": "address",
          "name": "smartAccount",
          "type": "address"
        }
      ],
      "name": "AlreadyInitialized",
      "type": "error"
    },
    {
      "inputs": [],
      "name": "ExecutionFailed",
      "type": "error"
    },
    {
      "inputs": [
        {
          "internalType": "address",
          "name": "smartAccount",
          "type": "address"
        }
      ],
      "name": "NotInitialized",
      "type": "error"
    },
    {
      "anonymous": false,
      "inputs": [
        {
          "indexed": true,
          "internalType": "address",
          "name": "account",
          "type": "address"
        },
        {
          "indexed": true,
          "internalType": "uint256",
          "name": "id",
          "type": "uint256"
        }
      ],
      "name": "JobAdded",
      "type": "event"
    },
    {
      "inputs": [
        {
          "components": [
            {
              "internalType": "address",
              "name": "token",
              "type": "address"
            },
            {
              "internalType": "address",
              "name": "targetToken",
              "type": "address"
            },
            {
              "internalType": "address",
              "name": "vault",
              "type": "address"
            },
            {
              "internalType": "uint48",
              "name": "validAfter",
              "type": "uint48"
            },
            {
              "internalType": "uint48",
              "name": "validUntil",
              "type": "uint48"
            },
            {
              "internalType": "uint256",
              "name": "limitAmount",
              "type": "uint256"
            },
            {
              "internalType": "uint48",
              "name": "refreshInterval",
              "type": "uint48"
            }
          ],
          "internalType": "struct AutoDCAExecutor.JobData",
          "name": "jobData",
          "type": "tuple"
        }
      ],
      "name": "createJob",
      "outputs": [
        {
          "internalType": "uint256",
          "name": "",
          "type": "uint256"
        }
      ],
      "stateMutability": "nonpayable",
      "type": "function"
    },
    {
      "inputs": [
        {
          "internalType": "uint256",
          "name": "jobId",
          "type": "uint256"
        }
      ],
      "name": "executeJob",
      "outputs": [
        {
          "internalType": "bytes",
          "name": "",
          "type": "bytes"
        }
      ],
      "stateMutability": "nonpayable",
      "type": "function"
    },
    {
      "inputs": [
        {
          "internalType": "address",
          "name": "account",
          "type": "address"
        }
      ],
      "name": "getJobData",
      "outputs": [
        {
          "components": [
            {
              "internalType": "address",
              "name": "token",
              "type": "address"
            },
            {
              "internalType": "address",
              "name": "targetToken",
              "type": "address"
            },
            {
              "internalType": "address",
              "name": "vault",
              "type": "address"
            },
            {
              "internalType": "uint48",
              "name": "validAfter",
              "type": "uint48"
            },
            {
              "internalType": "uint48",
              "name": "validUntil",
              "type": "uint48"
            },
            {
              "internalType": "uint256",
              "name": "limitAmount",
              "type": "uint256"
            },
            {
              "internalType": "uint48",
              "name": "refreshInterval",
              "type": "uint48"
            }
          ],
          "internalType": "struct AutoDCAExecutor.JobData[]",
          "name": "",
          "type": "tuple[]"
        },
        {
          "components": [
            {
              "internalType": "bool",
              "name": "active",
              "type": "bool"
            },
            {
              "internalType": "uint48",
              "name": "lastUsed",
              "type": "uint48"
            },
            {
              "internalType": "uint48",
              "name": "totalExecutions",
              "type": "uint48"
            },
            {
              "internalType": "uint256",
              "name": "totalTargetToken",
              "type": "uint256"
            }
          ],
          "internalType": "struct AutoDCAExecutor.JobExecution[]",
          "name": "",
          "type": "tuple[]"
        }
      ],
      "stateMutability": "view",
      "type": "function"
    },
    {
      "inputs": [
        {
          "internalType": "address",
          "name": "smartAccount",
          "type": "address"
        }
      ],
      "name": "isInitialized",
      "outputs": [
        {
          "internalType": "bool",
          "name": "",
          "type": "bool"
        }
      ],
      "stateMutability": "view",
      "type": "function"
    },
    {
      "inputs": [
        {
          "internalType": "uint256",
          "name": "typeID",
          "type": "uint256"
        }
      ],
      "name": "isModuleType",
      "outputs": [
        {
          "internalType": "bool",
          "name": "",
          "type": "bool"
        }
      ],
      "stateMutability": "pure",
      "type": "function"
    },
    {
      "inputs": [
        {
          "internalType": "address",
          "name": "",
          "type": "address"
        },
        {
          "internalType": "uint256",
          "name": "",
          "type": "uint256"
        }
      ],
      "name": "jobDetails",
      "outputs": [
        {
          "internalType": "address",
          "name": "token",
          "type": "address"
        },
        {
          "internalType": "address",
          "name": "targetToken",
          "type": "address"
        },
        {
          "internalType": "address",
          "name": "vault",
          "type": "address"
        },
        {
          "internalType": "uint48",
          "name": "validAfter",
          "type": "uint48"
        },
        {
          "internalType": "uint48",
          "name": "validUntil",
          "type": "uint48"
        },
        {
          "internalType": "uint256",
          "name": "limitAmount",
          "type": "uint256"
        },
        {
          "internalType": "uint48",
          "name": "refreshInterval",
          "type": "uint48"
        }
      ],
      "stateMutability": "view",
      "type": "function"
    },
    {
      "inputs": [
        {
          "internalType": "address",
          "name": "",
          "type": "address"
        },
        {
          "internalType": "uint256",
          "name": "",
          "type": "uint256"
        }
      ],
      "name": "jobExecutions",
      "outputs": [
        {
          "internalType": "bool",
          "name": "active",
          "type": "bool"
        },
        {
          "internalType": "uint48",
          "name": "lastUsed",
          "type": "uint48"
        },
        {
          "internalType": "uint48",
          "name": "totalExecutions",
          "type": "uint48"
        },
        {
          "internalType": "uint256",
          "name": "totalTargetToken",
          "type": "uint256"
        }
      ],
      "stateMutability": "view",
      "type": "function"
    },
    {
      "inputs": [],
      "name": "name",
      "outputs": [
        {
          "internalType": "string",
          "name": "",
          "type": "string"
        }
      ],
      "stateMutability": "pure",
      "type": "function"
    },
    {
      "inputs": [
        {
          "internalType": "bytes",
          "name": "data",
          "type": "bytes"
        }
      ],
      "name": "onInstall",
      "outputs": [],
      "stateMutability": "nonpayable",
      "type": "function"
    },
    {
      "inputs": [
        {
          "internalType": "bytes",
          "name": "",
          "type": "bytes"
        }
      ],
      "name": "onUninstall",
      "outputs": [],
      "stateMutability": "nonpayable",
      "type": "function"
    },
    {
      "inputs": [
        {
          "internalType": "uint256",
          "name": "jobId",
          "type": "uint256"
        }
      ],
      "name": "toggleJobStatus",
      "outputs": [],
      "stateMutability": "nonpayable",
      "type": "function"
    },
    {
      "inputs": [],
      "name": "version",
      "outputs": [
        {
          "internalType": "string",
          "name": "",
          "type": "string"
        }
      ],
      "stateMutability": "pure",
      "type": "function"
    }
  ],
  "bytecode": "0x60808060405234601557611509908161001b8239f35b600080fdfe60806040818152600436101561001457600080fd5b60009160e0833560e01c91826306fdde031461097f5750816321240f24146108d2578163389323ce146106685750806354fd4d501461060857806358838def146102805780636d61fe70146102685780638a91b0e314610254578063cf25cbf7146101d7578063d60b347f146101b2578063e100fa2f14610110578063ecd05961146100f05763f63ae5fc146100a957600080fd5b346100ec5760203660031901126100ec576100d46100e9913384526001602052600435908420610b58565b50805460ff818116151660ff19909116179055565b80f35b5080fd5b50346100ec5760203660031901126100ec57602090516002600435148152f35b50346100ec57806003193601126100ec57610129610acc565b602435926001600160a01b038092168152806020528281209081548510156101af575060e09361015891610b8a565b508181541692826001830154169260028301549165ffffffffffff9182600460038701549601541695825197885260208801528316908601528160a01c16606085015260d01c608084015260a083015260c0820152f35b80fd5b50346100ec5760203660031901126100ec57906020916101d0610acc565b5051908152f35b50346100ec57806003193601126100ec576101f0610acc565b6001600160a01b031682526001602052808220805460243593908410156101af575060809261021e91610b58565b50805491600165ffffffffffff9201549181519360ff811615158552818160081c16602086015260381c16908301526060820152f35b82346101af5761026336610b0e565b505080f35b82346101af576100e961027a36610b0e565b90610ef8565b50346100ec57602080600319360112610604576004353384528382526102a881848620610b8a565b5090338552600183526102c86102c082868820610b58565b509133610f91565b1580156105f8575b6105cf576001600160a01b03808354168160018501541690858389896003890154836102fb46611147565b9662ffffff610308610e90565b9961031785858c511685611087565b6103208d610e42565b5261032a8c610e52565b5283828a828d51169c0151169161033f610e6f565b5087519461034c86610a24565b85528a8501908152878501928352816060860195338752608081019889527f04e45aaf0000000000000000000000000000000000000000000000000000000060a082019a8c8c5260c083019c8d52519d8e0152511660248c0152511660448a015251166064880152511660848601525160a48501525160c4840152511660e482015260e4815261012081019181831067ffffffffffffffff8411176105bb579161042f939161042a93828b5261040183610a72565b82528a61014082015261016081015261041982610e5f565b5261042381610e5f565b5033611223565b610e5f565b5184818051810103126105b757840151928184926002830154169081610514575b5050505065ffffffffffff600181835460381c16019081116105005781546cffffffffffff00000000000000191660389190911b6cffffffffffff000000000000001617815560010180549182018092116104ec5755815181815260605181830181905290938492815b8381106104d7575050828201840152601f01601f19168101030190f35b608081015187820187015286945081016104ba565b602485634e487b7160e01b81526011600452fd5b602486634e487b7160e01b81526011600452fd5b6105ad9382610530926001610527610e90565b96015416611087565b61053984610e42565b5261054383610e52565b5261054c610e6f565b5086517f6e553f6500000000000000000000000000000000000000000000000000000000878201528560248201523360448201526044815261058d81610a56565b87519161059983610a72565b825288878301528782015261041982610e5f565b5081388080610450565b8680fd5b60248a634e487b7160e01b81526041600452fd5b600484517facfdb444000000000000000000000000000000000000000000000000000000008152fd5b5060ff815416156102d0565b8280fd5b50346100ec57816003193601126100ec5780516106649161062882610a8e565b600582527f302e302e310000000000000000000000000000000000000000000000000000006020830152519182916020835260208301906109ff565b0390f35b8383346100ec57602091826003193601126101af576001600160a01b03939284610690610acc565b16825281815282822090600193848252808420968354966106b088610e2a565b976106bd8451998a610aaa565b8089528489018096885285882088915b83831061084f57505050508854906106e482610e2a565b916106f185519384610aaa565b808352858301809b895286892089915b8383106107ee5750505050835198848a0190858b525180915260609360608b01979289915b83831061078e57505050508886038986015250518085529383019794915b8483106107515787890388f35b8551805115158a528481015165ffffffffffff908116868c01528282015116828b0152820151828a01526080909801979483019491860191610744565b8451805182168b52808a015182168b8b0152808901518216898c01528088015165ffffffffffff908116898d01526080808301518216908d015260a080830151908d015260c09182015116908b01529881019893880193918b0191610726565b9a600289829f9d8a999f979a9d9b9c9d5161080881610a56565b855460ff81161515825265ffffffffffff90818160081c168584015260381c168b8201528486015460608201528152019201920191909c9a9c9b9596939b99989799610701565b99600588829e9c889e979998899d9b9c9d519061086b82610a24565b8087541682528086880154168483015260028701549081168b83015265ffffffffffff9060a0908281831c16606085015260d01c608084015260038801549083015260048701541660c08201528152019201920191909b999b9a9495939a989796986106cd565b5050346100ec5760e03660031901126100ec578051916108f183610a24565b6001600160a01b036004358181168103610604578452602435818116810361060457602085015260443590811681036100ec578383015265ffffffffffff9060643582811681036100ec57606085015260843582811681036100ec57608085015260a43560a085015260c43591821682036101af5750826109789160c06020950152610ba6565b9051908152f35b8490843461060457826003193601126106045761066492506109a082610a8e565b600f82527f4175746f4443414578656375746f7200000000000000000000000000000000006020830152519182916020835260208301906109ff565b60005b8381106109ef5750506000910152565b81810151838201526020016109df565b90602091610a18815180928185528580860191016109dc565b601f01601f1916010190565b60e0810190811067ffffffffffffffff821117610a4057604052565b634e487b7160e01b600052604160045260246000fd5b6080810190811067ffffffffffffffff821117610a4057604052565b6060810190811067ffffffffffffffff821117610a4057604052565b6040810190811067ffffffffffffffff821117610a4057604052565b90601f8019910116810190811067ffffffffffffffff821117610a4057604052565b600435906001600160a01b0382168203610ae257565b600080fd5b35906001600160a01b0382168203610ae257565b359065ffffffffffff82168203610ae257565b906020600319830112610ae25760043567ffffffffffffffff92838211610ae25780602383011215610ae2578160040135938411610ae25760248483010111610ae2576024019190565b8054821015610b745760005260206000209060011b0190600090565b634e487b7160e01b600052603260045260246000fd5b8054821015610b74576000526005602060002091020190600090565b6000338152602091818352604090818320805491680100000000000000009283811015610e1657610bde906001938482018155610b8a565b610e035790600460c0926001600160a01b03808451167fffffffffffffffffffffffff0000000000000000000000000000000000000000908184541617835586830190828c8701511690825416179055878401511660608401519079ffffffffffff00000000000000000000000000000000000000007fffffffffffff0000000000000000000000000000000000000000000000000000608087015160d01b169260a01b161717600282015560a08301516003820155019065ffffffffffff92839101511665ffffffffffff1982541617905533855281865283852090845193610cc785610a56565b8385528785018781528686019188835260608701948986528054918210156105bb5790610cf8918782018155610b58565b969096610df05783610d6e949392610d22610d42935115158a9060ff801983541691151516179055565b51885466ffffffffffff001916911660081b66ffffffffffff0016178755565b5185546cffffffffffff000000000000001916911660381b6cffffffffffff0000000000000016178455565b51910155338252818352808220546000199390848101908111610ddc57908391337f5267cc3dc52ec998f4486441e56df63675fa73bfe96fbda51c4cfa7a1d6116098480a333825252812054918201918211610dc8575090565b80634e487b7160e01b602492526011600452fd5b602484634e487b7160e01b81526011600452fd5b602489634e487b7160e01b815280600452fd5b602486634e487b7160e01b815280600452fd5b602486634e487b7160e01b81526041600452fd5b67ffffffffffffffff8111610a405760051b60200190565b805160011015610b745760400190565b805115610b745760200190565b805160021015610b745760600190565b60405190610e7c82610a72565b606060408360008152600060208201520152565b60405190610e9d82610a56565b600382528160005b60608110610eb1575050565b602090610ebc610e6f565b82828501015201610ea5565b91909165ffffffffffff80809416911601918211610ee257565b634e487b7160e01b600052601160045260246000fd5b908015610f8d578160e09181010312610ae257610f8a90610f8060c060405192610f2184610a24565b610f2a81610ae7565b8452610f3860208201610ae7565b6020850152610f4960408201610ae7565b6040850152610f5a60608201610afb565b6060850152610f6b60808201610afb565b608085015260a081013560a085015201610afb565b60c0820152610ba6565b50565b5050565b6001600160a01b0316610fc660009282845283602052610fb48160408620610b8a565b50928452600160205260408420610b58565b5065ffffffffffff80600484015416600282845460081c16940154828160a01c16421090811561107a575b506110735742826110028387610ec8565b161115611010575050505090565b9293509091836110465750815466ffffffffffff001916429190911660081b66ffffffffffff001617905550600190565b600190565b611054915061104193610ec8565b66ffffffffffff0082549160081b169066ffffffffffff001916179055565b5050505090565b905060d01c421138610ff1565b929190611092610e6f565b5061109b610e6f565b506001600160a01b03809416916040908151957f095ea7b30000000000000000000000000000000000000000000000000000000093846020890152169586602482015260006044820152604481526110f281610a56565b8251906110fe82610a72565b8582526000602083015283820152958251936020850152602484015260448301526044825261112c82610a56565b80519261113884610a72565b83526000602084015282015290565b60409081519161115683610a8e565b60008084526020938401526001820361119657610bb89150519161117983610a8e565b73e592427a0aece92de3edee1f18e0157c05861564835282015290565b608982036111cb57610bb8915051916111ae83610a8e565b7368b3465833fb72a70ecdf485e0e4c7bd8665fc45835282015290565b61a4b182036111e4576101f49150519161117983610a8e565b610bb891612105036112185751916111fb83610a8e565b732626664c2603336e57b271c5c0b26f421741e481835282015290565b51916111ae83610a8e565b906040918251602091828201947f0100000000000000000000000000000000000000000000000000000000000000865260009283602182015283602282015283602682015283602a82015284815261127a81610a8e565b519551958481106114bf575b506001600160a01b0394838251968784810193888083015280518095526060808301908a60608860051b86010193019186915b8c8a8a85106114705750505050505083945003946112df601f19968781018b528a610aaa565b8451809481937fd691c96400000000000000000000000000000000000000000000000000000000835260049c60048401528261132760249d8a602484015260448301906109ff565b0393165af1968715611466578497611344575b5050505050505090565b90919293949596503d8086843e61135b8184610aaa565b820192868385031261146257825167ffffffffffffffff9384821161145e570195601f9480601f890112156100ec5787519661139688610e2a565b9a6113a385519c8d610aaa565b888c528a808d019960051b8b010199838b1161145a578b8101995b8b8b106113de57505050505050505050505050503880808080808061133a565b8a518981116105b757820185603f820112156105b7578d810151908a821161144857908b918f61141690888c51958501160184610aaa565b818352878a838301011161144457918f93916114399085948c86850191016109dc565b8152019a01996113be565b8880fd5b848860418c634e487b7160e01b835252fd5b8480fd5b8780fd5b8580fd5b82513d86823e3d90fd5b8599508282949781838c9e9c6114ab96979a60019a9d605f19908603018d5251908151168452878101518885015201519382015201906109ff565b9701930193018b938a9693929795976112b9565b60001990850360031b1b909516943861128656fea26469706673582212208ef98bdb6f73ec8067240e6724f792fae70cc32776491e4ef514241157723fb864736f6c63430008190033",
  "linkReferences": {},
  "deployedLinkReferences": {}
}